:100000000C947A210C94AB210C94AB210C94AB2171
:100010000C94AB210C94AB210C94AB210C94AB2130
:100020000C94AB210C94AB210C94AB210C94AB2120
:100030000C94AB210C94AB210C94AB210C94AB2110
:100040000C94AB210C94AB210C94AB210C94AB2100
:100050000C94AB210C94AB210C94AB210C9418376D
:100060000C94AB210C9450360C9427360C94AB2195
:100070000C94AB210C94AB210C94AB210C94AB21D0
:100080000C94AB210C94AB210C94AB210C94AB21C0
:100090000C94FE350C94D5350C94AB210C94AB210B
:1000A0000C94AB210C94AB210C94AB210C94AB21A0
:1000B0000C94AB210C94AB210C94AB210C94AB2190
:1000C0000C94AB210C94AB210C94AB210C94AB2180
:1000D0000C94AB210C94AB210C94AB210C94AB2170
:1000E0000C94AB2179357C356B356F357535B3356F
:1000F000803584358A358E35923598359C35A035D6
:10010000B335A635AA35AE350000210024002700FE
:100110002A002D0030003300010100000401070116
:100120000A01010210202008081020401020408001
:1001300002010201080402010102040810204080AB
:100140008040201008040201800402018040201039
:100150000804020108040201010204081020408082
:100160000102040810204080050505050705080860
:100170000808020202020A0A080804040404010131
:100180000101010101010303030303030303040746
:1001900007070C0C0C0C0C0C0C0C020202020606DD
:1001A0000606060606060B0B0B0B0B0B0B0B0027AC
:1001B00035FCF319068F109320FFF921F919F90086
:1001C00000000901010619190A020078FCFCFCFC78
:1001D000FCFC78787878303030303030000078FCB3
:1001E000FCFCFC780B0B160B000E60C0F1E0F1E09C
:1001F000F1E0F1E0F1E0F1E060C060C060C060C03B
:100200001019321301FF071C071C071C071C0E38AE
:100210000E380E387FFF7FFF7FFF0E380C301C70CA
:100220001C70FFFEFFFEFFFE1C701C7038E038E003
:1002300038E038E038E038E0111E5A1301FC018044
:100240000001800001800007F0001FFC00399E00C3
:10025000718F00719F00F19F00F18E00FD8000FF03
:1002600080007FF0007FFC003FFE000FFF0001FFD9
:100270008001BF80718F80F98780F98780F98700BE
:10028000F18F00799E003FFC0007E0000180000133
:1002900080000180000180001A18601B000000002F
:1002A000180007C030000F6070001E39E0003C1FCE
:1002B00060003C10C0007810800078118000F031A0
:1002C0000000F0230000F0620000F0C61F007B8CED
:1002D0003D803F0C78C00018F0400011F040003124
:1002E000E0400021E0C00063E0C000C3C18000C363
:1002F000C1800183C3000181E6000300FC001819DE
:100300004B1C0200007C0001FF0003C70007878030
:1003100007838007838007C78007C70007EF0007B0
:10032000FC0003F80007F1FF0FF9FF3DF87C78FCB3
:100330003878FE70F87E60F83FE0FC3FC0FC1FC1DB
:10034000FE0FE3FF0FF37FFFFE3FF3FE0F80FC0481
:100350000B0B08020E60F0F0F0F0F0F060606060EF
:10036000091B360D02FD038007000E001C001C0057
:100370003800380078007800F000F000F000F0005D
:10038000F000F000F000F000F0007000780038009D
:1003900038001C001C000E0007000380091B360DEE
:1003A00001FDE000300038001C001C000E000E00B3
:1003B0000F000700078007800780078007800780FD
:1003C0000780078007800F000F000E000E001C0042
:1003D0001C0038007000C0000C0F1E11020A06003D
:1003E0000E000E00E670E670F6F03FC00F007FE0F2
:1003F000F6F0E670E6700700070006001010201403
:10040000020103C003C003C003C003C003C0FFFF59
:10041000FFFFFFFFFFFF03C003C003C003C003C013
:1004200003C0060B0B0902FB78F8FCFCFC7C1C18D3
:100430003070E00804040B0106FFFFFFFF0606060C
:1004400009010078FCFCFCFC780A193209FF000065
:10045000C001C001C00180038003800300070007C2
:100460000006000E000E000C001C001C00180038D6
:100470000038003000700070006000E000E000C054
:100480000010183013010003C00FF01E783C3C7CB4
:100490003E781EF81FF81FF81FF81FF81FF81FF806
:1004A0001FF81FF81FF81FF81F781E781E7C3E3CAF
:1004B0003C1E780FF003C00D1830130300018007B5
:1004C00080FF80FF800F800F800F800F800F800FD4
:1004D000800F800F800F800F800F800F800F800FA4
:1004E000800F800F800F800F80FFF8FFF8111848F1
:1004F0001301000FF0003FFC00787E00F03F00F891
:100500001F00FC1F00FC1F00FC1F007C3F00383E4A
:1005100000007C0000F80000F00001E00003C000D3
:100520000381800701800E01801C03803FFF807FD4
:10053000FF007FFF00FFFF00FFFF001018301301D6
:10054000000FE03FF8787CF83EFC3EFC3EFC3E7835
:100550003E007C007007E007C000F8007E003E000F
:100560003F781FFC1FFC1FFC3FF83E787E3FF807DA
:10057000E0111848130000000400000C00001C00EB
:10058000003C00007C0000FC0001FC0001FC0003BA
:100590007C00067C000C7C001C7C00387C00707C9D
:1005A00000E07C00C07C00FFFF80FFFF80007C003B
:1005B000007C00007C00007C0003FF8003FF8010B3
:1005C00018301301001FFF3FFE3FFE3FFC3FF0309D
:1005D0000030003000300037E03FF8387C303E20FB
:1005E0003E001F001F381F7C1FFC1FFC3E783E7022
:1005F000FC3FF00FC011184813010003F0000FFC7E
:10060000001F1E003E3E003C3E007C3E00781C0069
:10061000F80000F80000F80000F9F800FFFE00FF05
:100620007F00FC1F00F81F80F80F80F80F80F80F84
:1006300080F80F807C1F007C1F003E3E001FFC00E6
:1006400007F000101830130200FFFFFFFEFFFEFF4F
:10065000FCFFFCC018C018C0388070007000F000AB
:10066000E001E001E003E003C007C007C00FC00FD6
:10067000C00FC00FC00FC00780111848130100073A
:10068000F0000FFC003C3E00381F00780F00780F90
:1006900000780F007C0F007E1E007FFC003FF00002
:1006A0001FFC000FFE003FFF00787F00F81F80F066
:1006B0000F80F00F80F00F00F00F00F81E007C3C60
:1006C000003FF00007C00011184813010003C000EC
:1006D0001FF8003E7C007C3E00FC1F00F81F00F865
:1006E0000F80F80F80F80F80FC1F80FC3F807F6F29
:1006F000803FCF801F8F80000F80000F80700F0021
:10070000F81F00FC1F00F81E00F83E0070FC003FC0
:10071000F0000FC00006101009020078FCFCFCFC81
:10072000780000000078FCFCFCFC78061515090236
:10073000FB78FCFCFCFC780000000078F8FCFCFC7A
:100740007C1C183070E01012241402000003000F0B
:10075000007F01FF07FC1FF07F80FE00F800FC0017
:10076000FF803FE00FF803FE007F001F000700013D
:10077000100A14140203FFFFFFFFFFFFFFFF00003A
:100780000000FFFFFFFFFFFFFFFF10122414020015
:10079000C000F000FE00FF803FE00FF801FE007F88
:1007A000001F003F01FF07FC1FF07FC0FE00F800A4
:1007B000E00080000E19321001000FC03FF071F808
:1007C000F0F8F8FCF8FCF8FC70FC00F801F801F017
:1007D00003E0038007000700060006000000000099
:1007E0000F001F801F801F801F800F0017194B19DB
:1007F0000000007F0001FFC007E3F00F00781E003B
:100800001C1C000C383C0630FFE671E3E671E3C6C1
:1008100063C3C6E383C6E78786E7878CE7078CE771
:100820000F1CE70F18E31F7073F7E030E3CC3800BC
:100830001C1C00780F01F007FFE001FF001919648C
:10084000190000001C0000001C0000001E00000039
:100850003E0000003F0000007F0000007F8000009D
:100860007F800000FF800000CFC00001CFC00001EA
:100870008FC0000187E0000387E0000307F0000756
:1008800003F00007FFF00007FFF8000E01F8000C6E
:1008900001FC001C00FC001C00FE003E00FE00FFEE
:1008A00083FF80FF83FF8017194B190100FFFF8032
:1008B000FFFFE01F83F01F81F81F81F81F80FC1FDE
:1008C00080FC1F80FC1F80F81F81F81F81F01F87AC
:1008D000E01FFF001FFFC01F83F01F80FC1F80FC74
:1008E0001F80FE1F807E1F80FE1F80FC1F80FC1F5C
:1008F00083F8FFFFF0FFFFC016194B180100007EC0
:100900001803FFB807C1F81F80F81F00783E0038B1
:100910007E00387E0018FE0018FC0008FC0000FC79
:100920000000FC0000FC0000FC0000FE0000FE00D7
:100930000CFE001C7E00187E00383F00301F8070C7
:100940000FC1E007FFC000FF0018194B1A0100FF9C
:10095000FF00FFFFE01F83F01F81F81F80FC1F8056
:100960007E1F807E1F807F1F803F1F803F1F803F34
:100970001F803F1F803F1F803F1F803F1F803F1F02
:10098000807F1F807E1F807E1F807E1F80FC1F81D6
:10099000F81F83F0FFFFE0FFFF0015194B17010060
:1009A000FFFFF8FFFFF81F81F81F80F81F80781FF6
:1009B00080381F80381F86181F86181F8E001F8ED4
:1009C000001F9E001FFE001FFE001F9E001F8E00C6
:1009D0001F86181F86181F86181F80381F80381F13
:1009E00080781F81F8FFFFF8FFFFF815194B1701FA
:1009F00000FFFFF8FFFFF81FC1F81F80F81F807885
:100A00001F80381F80181F83181F83181F87081F17
:100A100087001F9F001FFF001FFF001F8F001F8701
:100A2000001F83001F83001F83001F80001F8000A2
:100A30001F80001F8000FFF800FFF8001919641ADA
:100A40000100007E0C0003FFDC0007C1FC000F80EA
:100A50007C001F003C003F001C007E001C007E004C
:100A60000C00FE000C00FE000400FE000000FC0074
:100A70000000FC000000FC000000FC07FF80FC07F9
:100A8000FF80FC007C00FE007C007E007C007E007D
:100A90007C003F00FC001F00FC000F81DC0007FF12
:100AA0001C0000FC0C001A19641C0100FFF3FFC0BD
:100AB000FFF3FFC01F807E001F807E001F807E002E
:100AC0001F807E001F807E001F807E001F807E00B2
:100AD0001F807E001F807E001F807E001FFFFE00A3
:100AE0001FFFFE001F807E001F807E001F807E0093
:100AF0001F807E001F807E001F807E001F807E0082
:100B00001F807E001F807E00FFF3FFC0FFF3FFC049
:100B10000C19320E0100FFF0FFF01F801F801F80B4
:100B20001F801F801F801F801F801F801F801F80CD
:100B30001F801F801F801F801F801F801F801F80BD
:100B40001F801F80FFF0FFF014194B14000000FFFE
:100B5000F000FFF0001F80001F80001F80001F803A
:100B6000001F80001F80001F80001F80001F80006A
:100B70001F80001F80181F807E1F807E1F80FE1F29
:100B800080FE1F80FE1F80FC1F00603F00603E0053
:100B900038FE003FF8000FE0001919641B0100FF48
:100BA000F3FF80FFF3FF801F807E001F8078001F0F
:100BB00080F0001F81E0001F81C0001F8380001FA4
:100BC0008700001F8F00001F9F00001FBF80001FB5
:100BD000FFC0001FEFC0001FEFE0001FC7E0001FB5
:100BE00087F0001F83F8001F81F8001F81FC001FA1
:100BF00080FC001F80FE001F80FF00FFF3FF80FFCE
:100C0000F3FF8015194B170100FFF000FFF0001FE4
:100C100080001F80001F80001F80001F80001F8039
:100C2000001F80001F80001F80001F80001F8000A9
:100C30001F80001F80001F80001F80181F80181F4A
:100C400080181F80381F80381F80781F81F8FFFFB1
:100C5000F8FFFFF81F19642000007FE007FE7FF017
:100C60000FFE0FF00FF00FF00FF00DF81BF00DF866
:100C70001BF00DF81BF00CFC3BF00CFC33F00CFCF3
:100C800033F00C7C73F00C7E63F00C7E63F00C3E52
:100C9000E3F00C3FC3F00C3FC3F00C1FC3F00C1F7C
:100CA00083F00C1F83F00C0F83F00C0F03F00C0F7C
:100CB00003F01E0F03F0FFC61FFEFFC61FFE1B1929
:100CC000641B0000FF807FE0FFC07FE03FE00F007B
:100CD0000FE006000FF006000FF806000FFC0600FC
:100CE0000DFE06000CFE06000CFF06000C7F8600C1
:100CF0000C3FC6000C1FE6000C0FE6000C0FF600C0
:100D00000C07FE000C03FE000C01FE000C00FE00B0
:100D10000C007E000C007E000C003E001E001E0039
:100D2000FFC00E00FFC0060018194B1A0100007E1C
:100D30000003FFC00FC1F01F80F83F00FC3E007CA5
:100D40007E007E7E007EFC003FFC003FFC003FFCFE
:100D5000003FFC003FFC003FFC003FFC003FFC006C
:100D60003F7E007E7E007E3E007C3F00FC1F80F8C0
:100D70000FC1F003FFC0007E0016194B180100FFE1
:100D8000FF80FFFFE01F83F01F81F81F80FC1F80A2
:100D9000FC1F80FC1F80FC1F80FC1F80FC1F81F853
:100DA0001F83F01FFFE01FFF001F80001F80001F38
:100DB00080001F80001F80001F80001F80001F8098
:100DC000001F8000FFF000FFF000191F7C1A01FADD
:100DD000007E000003FFC0000FC1F0001F80F8007C
:100DE0003F00FC003E007C007E007E007E007E0016
:100DF000FC003F00FC003F00FC003F00FC003F0007
:100E0000FC003F00FC003F00FC003F00FC3C3F00BA
:100E1000FCFE3F007F877E007F83FE003F03FC00D7
:100E20003F03FC001F83F8000FC3F00003FFE00046
:100E3000007FE0000003E1800003E1800001F38017
:100E40000001FF000000FE0000003C001919641BB7
:100E50000100FFFF8000FFFFF0001F83F8001F81EB
:100E6000F8001F80FC001F80FC001F80FC001F801A
:100E7000FC001F80FC001F81F8001F81F0001F870D
:100E8000C0001FFF00001FFFC0001F87E0001F837E
:100E9000E0001F83F0001F83F0001F83F0001F831A
:100EA000F9801F81F9801F81FB001F81FF00FFF087
:100EB000FE00FFF07C0013194B15010003F0C01F6A
:100EC000FDC03C1FC07807C07003C0F001C0F00037
:100ED000C0F800C0FF00C0FFF0007FFE007FFF00F1
:100EE0003FFF800FFFC007FFE0407FE06007E0604A
:100EF00003E07001E07801E07801C07E03C07F0765
:100F00008067FF0061FC0015194B170100FFFFF817
:100F1000FFFFF8F1F878E1F838E1F838C1F818C1C6
:100F2000F818C1F81881F80881F80801F80001F8EC
:100F30000001F80001F80001F80001F80001F800D4
:100F400001F80001F80001F80001F80001F80001C3
:100F5000F8000FFF800FFF801A19641C0100FFF0DA
:100F6000FFC0FFF0FFC01F801E001F800C001F800D
:100F70000C001F800C001F800C001F800C001F80C5
:100F80000C001F800C001F800C001F800C001F80B5
:100F90000C001F800C001F800C001F800C001F80A5
:100FA0000C001F800C001F800C001F801C000FC055
:100FB00018000FE0380007F8F00003FFE00000FF22
:100FC000C000191964190000FFE0FF80FFE0FF80F6
:100FD0003F803E001F801C001F801C001FC01800A7
:100FE0000FC038000FC0300007E0700007E070004D
:100FF00007F0600003F0E00003F0C00001F8C0005B
:1010000001F9C00001F9800000FF800000FF00002E
:1010100000FF0000007F0000007E0000003E000096
:10102000003E0000003C0000001C0000201964206D
:101030000000FFDFF9FFFFDFF9FF3F07E07C3F071C
:10104000E0381F83E0301F83F0701F83F0700FC102
:10105000F0600FC3F8600FC3F8E007C3F8C007E7FC
:10106000F8C007E6FCC007E6FD8003FE7D8003FCB8
:101070007F8003FC7F8001FC3F0001F83F0001F806
:101080003F0000F83E0000F81E0000F01E00007057
:101090001C0000700C0018194B180000FFE3FFFF44
:1010A000E3FF3F80FC1FC0781FC0700FE0E007E047
:1010B000C007F1C003FF8003FF0001FF0000FE0036
:1010C00000FE00007F00007F8000FF8001DFC00382
:1010D0008FE0038FE00707F00E03F01E03F83F03D5
:1010E000FCFFEFFFFFEFFF18194B180000FFF1FFA7
:1010F000FFF1FF3F807C1FC0381FC0700FE0700FF2
:10110000E0E007F0C003F1C003F98001FB8001FFBC
:101110000000FF00007E00007E00007E00007E00D8
:10112000007E00007E00007E00007E00007E000049
:101130007E0003FFC003FFC013194B1501007FFFA2
:10114000E07FFFE07E0FE0780FE0701FC0701F802F
:10115000603F80607F00407E0000FE0001FC0001D7
:10116000FC0003F80003F00007F0000FE0200FE0A0
:10117000601FC0601F80603F80E07F00E07F01E073
:10118000FE07E0FFFFE0FFFFE0081D1D0D03FCFF71
:10119000FFF0F0F0F0F0F0F0F0F0F0F0F0F0F0F040
:1011A000F0F0F0F0F0F0F0F0F0F0FFFF1019321472
:1011B0000200F000F80078007C003C003E001E00B9
:1011C0001F000F000F80078007C003C003E001E08D
:1011D00001F000F000F80078007C003C003E001EAA
:1011E000001E000F081D1D0D01FCFFFF0F0F0F0F4C
:1011F0000F0F0F0F0F0F0F0F0F0F0F0F0F0F0F0FFF
:101200000F0F0F0F0FFFFF100E1C14020B03C00770
:10121000E007E00FF00FF00FF01E781E783C3C3C2A
:101220003C7C3E781EF81FF00F1003061000FBFFF9
:10123000FFFFFFFFFF0706060B021160F0F87C1EA0
:10124000061210301401000FF0003FFC00787E0001
:101250007C3E007C3E00383E00003E0003FE001F46
:10126000BE007E3E007C3E00FC3E00FC3E00FC7F5B
:10127000407FFFC03F8F8013194B150000FF000017
:10128000FF00001F00001F00001F00001F00001FC4
:1012900000001F00001F00001F3F001FFF801FCF26
:1012A000C01F87C01F03E01F03E01F03E01F03E010
:1012B0001F03E01F03E01F03E01F03C01F07C01F41
:1012C0008F801DFF00187C000F102011010003F01B
:1012D0000FFC3E3E7C3E7C3EF81CF800F800F80017
:1012E000F800FC02FC067E063F1C1FF807E01419FC
:1012F0004B160100007F80007F80001F80000F8060
:10130000000F80000F80000F80000F80000F800F03
:10131000CF801FEF803E3F807C1F80781F80F80FBA
:1013200080F80F80F80F80F80F80F80F80F80F809A
:10133000F81F807C1F807C7F803FEFF00F8FF010C4
:10134000102012010003E00FF83C3C781E781EF8D4
:101350001FF81FFFFFFFFFF800F800FC037C063FAB
:101360000E1FFC07F00F19320D000000F003FC0700
:101370009E0F3E0F3E1F1C1F001F001F00FFF0FFAF
:10138000F01F001F001F001F001F001F001F001F75
:10139000001F001F001F001F00FFE0FFE014194B9B
:1013A0001401F90001E00003F007FFF01F7CE03EAC
:1013B0003E007C1F007C1F007C1F007C1F007C1FE8
:1013C000003E3E001F7E001FF8007C0000F8000079
:1013D000FFFC00FFFF003FFF001FFF807FFF80F04A
:1013E0000780F00780F80F007FFE000FF00014194F
:1013F0004B160100FE0000FE00003E00003E000013
:101400003E00003E00003E00003E00003E00003E68
:101410003E003EFF803FFF803F8FC03F07C03F0739
:10142000C03E07C03E07C03E07C03E07C03E07C0E3
:101430003E07C03E07C03E07C0FF9FF0FF9FF00978
:1014400019320C02001C003E003E003E001C000051
:1014500000000000000000FE00FE003E003E003ED6
:10146000003E003E003E003E003E003E003E003E8C
:10147000003E00FF80FF800C20400CFDF900E001E1
:10148000F001F001F000E0000000000000000007A3
:10149000F007F001F001F001F001F001F001F001BE
:1014A000F001F001F001F001F001F001F001F001B4
:1014B000F071F0F9E0F9E0FBC07F801E0014194BD9
:1014C000160100FE0000FE00003E00003E00003E4F
:1014D00000003E00003E00003E00003E00003E3F97
:1014E000E03E3FE03E0F003E0E003E3C003E7000FE
:1014F0003EF8003FFC003FFE003F7E003E3F003EC6
:101500001F803E1FC03E0FE0FFBFF0FFBFF00A1973
:10151000320C0100FE00FE003E003E003E003E0098
:101520003E003E003E003E003E003E003E003E00CB
:101530003E003E003E003E003E003E003E003E00BB
:101540003E00FFC0FFC01D10401F0100FE7E1F00B7
:10155000FEFF3FC03FFFFFC03F9FE7E03F0FC3E0FC
:101560003E0F83E03E0F83E03E0F83E03E0F83E0BB
:101570003E0F83E03E0F83E03E0F83E03E0F83E0AB
:101580003E0F83E0FFBFEFF8FFBFEFF814103016F7
:101590000100FE3E00FEFF803FFF803F8FC03F07FF
:1015A000C03E07C03E07C03E07C03E07C03E07C062
:1015B0003E07C03E07C03E07C03E07C0FF9FF0FF8A
:1015C0009FF011103013010003E0000FF8003E3EC1
:1015D000007C1F007C1F00F80F80F80F80F80F8040
:1015E000F80F80F80F80F80F807C1F007C1F003EF2
:1015F0003E000FF80003E0001317451501F9FE7EC9
:1016000000FEFF803F8FC03F07C03F07E03E03E082
:101610003E03E03E03E03E03E03E03E03E03E03FE6
:1016200007C03F07C03F8F803FFF003E7E003E0067
:10163000003E00003E00003E00003E0000FF800033
:10164000FF80001417451401F907E1801FF9803E5F
:101650001F807C1F807C0F80F80F80F80F80F80FB0
:1016600080F80F80F80F80F80F807C1F807C1F802F
:101670003E3F801FEF8007CF80000F80000F80006B
:101680000F80000F80000F80007FF0007FF00F10B0
:1016900020100100FC7CFCFE3DFE3DBE3F3E3E1C9A
:1016A0003E003E003E003E003E003E003E003E004A
:1016B000FFC0FFC00E10201001000FD83CF870389A
:1016C000F018FE08FFC0FFF07FF83FF80FFCC0FCE9
:1016D000C03CE038F878FFF0CFC00C172E0E0100A8
:1016E000060006000E000E000E001E003E00FFE089
:1016F000FFE03E003E003E003E003E003E003E0059
:101700003E303E303E303E603FE01FC00F80141040
:1017100030160100FE1FC0FE1FC03E07C03E07C0BE
:101720003E07C03E07C03E07C03E07C03E07C03E62
:1017300007C03E0FC03E0FC03F1FC01FFFC01FF7B6
:10174000F007C7F0131030130000FF8FE0FF8FE0A9
:101750003F03C03F03801F03001F87000F86000F59
:10176000C60007CC0007EC0003F80003F80001F8FE
:101770000001F00000F00000E0001B10401D01001F
:10178000FFBFEFE0FFBFEFE07E1F83C03E0F83800F
:101790003F0F83001F0FC3001F8FC6000F9FE6007F
:1017A0000F9BE6000FFBEC0007F1FC0007F1F800CF
:1017B00003E1F80003E0F00001C0F00001C06000A8
:1017C000131030130000FFDFE0FFDFE03F07001FD2
:1017D0008E001FDC000FF80007F00003F00001F896
:1017E0000003FC0007FE000E7E001C3F003C3F8013
:1017F000FF7FE0FF7FE01317451300F9FF8FE0FF45
:101800008FE03F03803F03801F03001F87000F8688
:10181000000FC60007CC0007EC0003F80003F80037
:1018200001F80001F00000F00000E000006000702E
:10183000C000F8C000F98000FF00007F00003C00FD
:10184000000E10201001007FFC7FFC70FC61F8612D
:10185000F843F007E007E00FC01F801F0C3F0C7E2D
:101860001C7C1CFFFCFFFC081E1E0D03FC030E1C51
:101870003C3C3C3C3C3C3C3C3C3C38F0F83C3C3C3C
:101880003C3C3C3C3C3C3C3C1C0E030419191408F9
:1018900000F0F0F0F0F0F0F0F0F0F0F0F0F0F0F038
:1018A000F0F0F0F0F0F0F0F0F0F0081C1C0D01FD8D
:1018B000E0783C3C3C3C3C3C3C3C3C3C1C0F1F3CF2
:1018C0003C3C3C3C3C3C3C3C3C3C78E010060C1432
:1018D00002060E043F8E7FFFFFFE71FC2070FFFFAB
:1018E000FFFFFFFFFFFFFFFFFFFFFFFFFFFFFFFF08
:1018F000FFFFFFFFFFFFFFFFFFFFFFFFFFFFFF00F7
:1019000000000901010619190A02F978FCFCFCFC27
:10191000780000303030303030787878787CFCFCDB
:10192000FCFCFC780F162C1301FD00060006000CD1
:1019300003FC0E7C3C3E7C3E787EF87EF8DCF8C0F2
:10194000F980FD80FF02FF067E063F1C1FF80FE0B6
:1019500018001800300011184813010001F80007A2
:10196000FC000F8E000F0F001F1F001F1F001F1F06
:10197000001F0E000F00000F00000780007FF8001E
:101980007FF80007800007800007800003800003C5
:1019900081807B0380FFC700C7FF00C7FE00FDFEFC
:1019A00000787C0010102013010363C6F7EFFFFEE0
:1019B0007FFC3C3E781E700E700E700E700E781E0E
:1019C0003C3C7FFEFFFFF7EF63C61318481300008F
:1019D000FF1FE0FF1FE07C07803E07003E07001F5F
:1019E00006001F0E000F8C000F8C0007D80007D8D0
:1019F0000003F0001FFE001FFE0001E00001E000F8
:101A00001FFE001FFE0001E00001E00001E00001F8
:101A1000E0000FFC000FFC00041919140800F0F09E
:101A2000F0F0F0F0F0F0F0F00000000000F0F0F066
:101A3000F0F0F0F0F0F0F00C1D3A1002FD1F007312
:101A40008063C0E3C0E3C0F18078007C003E001EEC
:101A5000003F006F80C7C0E3E0E1E0F0F078707C09
:101A6000703E601FC00F8007C003E061E0F0E0F04F
:101A7000E0F0E079C03F000B050A0B001260C0F1F6
:101A8000E0F1E0F1E060C018194B19010000FF001F
:101A900003FFC00781E01E007018001830000C70B2
:101AA0007F0E60F38661C186E3C187C38083C380F4
:101AB00003C38003C38003C38003C38007C1C08600
:101AC000E1E18660FF0C703C1C3800381C00700F90
:101AD00081C003FF8000FE000B0F1E0C000A3F00B8
:101AE000E3C0F1C0E3C00FC071C0E1C0E3C0F7E0E4
:101AF000FDE0000000000000FFE0FFE00C0B16100E
:101B0000020304100C30186038E071C0F3C071C0DB
:101B100038E018600C300410100A14140203FFFFA0
:101B2000FFFFFFFFFFFF000F000F000F000F000F70
:101B3000000F0804040B0106FFFFFFFF17194B18E5
:101B4000000000FE0003FF800701E00C0070180099
:101B50003830001861FE0C60E70CC0E38EC0E386ED
:101B6000C0E386C0E706C0FC06C0EE06C0E706C0BC
:101B7000E706C0E38660E38C63F1CC300018180000
:101B8000181C00700700E003FF8000FC000B030638
:101B90000B0012FFE0FFE0FFE0090A140D020D3E0A
:101BA000007F006300C180C180C180C18063007F6D
:101BB000003E0010112214020003C003C003C00342
:101BC000C0FFFFFFFFFFFFFFFF03C003C003C00311
:101BD000C00000FFFFFFFFFFFFFFFF0A0E1C0B000E
:101BE000093F006380C1C0F1C0F1C071C00380072C
:101BF000000E00184030407FC0FFC0FFC00B0E1C1D
:101C00000B00093F0073C071C021C001C003801FD9
:101C10000003C001E071E0F1E0E1E063C03F0007D4
:101C200006060B02110C1E3E7CF0C014174516016F
:101C3000F9FE3FC0FE3FC03E07C03E07C03E07C0A2
:101C40003E07C03E07C03E07C03E07C03E07C03E3D
:101C50000FC03E0FC03F1FC03FFFC03FF7F037C768
:101C6000F0300000300000780000780000780000BC
:101C700078000030000015194B1901000FFFF83FE4
:101C8000FFF87FE3C07FE3C0FFE3C0FFE3C0FFE3F3
:101C9000C0FFE3C07FE3C07FE3C03FE3C01FE3C0FA
:101CA00007E3C001E3C001E3C001E3C001E3C001F9
:101CB000E3C001E3C001E3C001E3C001E3C001E30D
:101CC000C00FFFF80FFFF806060609010578FCFCB7
:101CD000FCFC780707070B01F918307C0E0EDC7846
:101CE000090E1C0B01090C00FC001C001C001C0050
:101CF0001C001C001C001C001C001C001C001C0004
:101D0000FF800B0F1E0C000A0E003F8071C0F1E037
:101D1000E0E0E0E0E0E0F1E071C03F800E000000B4
:101D200000007FE07FE00C0B161002038200C3006E
:101D3000618071C038E03CF038E071C06180C30060
:101D4000820019175C1C01000C003800FC003000F8
:101D50001C0070001C00E0001C00C0001C01C00042
:101D60001C0180001C0380001C0700001C070200EF
:101D70001C0E06001C0C0E001C1C1E00FFB83E00B2
:101D800000386E000070CE0000618E0000E30E008F
:101D900000C3FF8001C00E0003800E0003000E0090
:101DA00007003F8019175C1C01000C003800FC0084
:101DB00070001C0070001C00E0001C00C0001C0132
:101DC000C0001C0180001C0380001C0700001C06D2
:101DD0007E001C0EC7001C0D87801C1DE380FFB910
:101DE000E7800038E78000700F0000600E0000E020
:101DF0001C0001C0308001C060800380FF800301AF
:101E0000FF800701FF801A175C1C00003F001C00C8
:101E100073C0380071C0380021C0700001C060007C
:101E20000380E0001F00C00003C1C00001E3800088
:101E300071E38100F1E70300E1E6070063CE0F00E4
:101E40003F1C1F00001C3700003867000030C7002F
:101E5000007187000061FFC000E0070001C00700BB
:101E600001C0070003801FC00F19321001F903C021
:101E700007E007E007E007E003C000000000018082
:101E800001800180038007001F003E007E007C006F
:101E9000FC7CFC7CFC7EFC7C7C3C7E3C3FF00FC0F0
:101EA000191F7C1900000030000000780000007C41
:101EB0000000003E0000000F0000000300000000D2
:101EC0000000001C0000001E0000003E0000003F5B
:101ED0000000007F0000007F8000007F800000FF86
:101EE000800000CFC00001CFC000018FC00001877B
:101EF000E0000387E0000307F0000703F00007FF9E
:101F0000F00007FFF8000E01F8000C01FC001C00B7
:101F1000FC001C00FE003E00FE00FF83FF80FF83EC
:101F2000FF80192080190000000180000003C0001C
:101F30000007C000000F8000001E00000018000015
:101F400000000000001C0000001C0000001E00003B
:101F5000003E0000003F0000007F0000007F800086
:101F6000007F800000FF800000CFC00001CFC000D4
:101F7000018FC0000187E0000387E0000307F00045
:101F80000703F00007FFF00007FFF8000E01F8005C
:101F90000C01FC001C00FC001C00FE003E00FE00CA
:101FA000FF83FF80FF83FF80191F7C190000001C46
:101FB0000000003E0000007F000000E38000018080
:101FC000C00000000000001C0000001C0000001EFB
:101FD0000000003E0000003F0000007F0000007F86
:101FE0008000007F800000FF800000CFC00001CF94
:101FF000C000018FC0000187E0000387E0000307F5
:10200000F0000703F00007FFF00007FFF8000E01E3
:10201000F8000C01FC001C00FC001C00FE003E004F
:10202000FE00FF83FF80FF83FF80191F7C190000E3
:1020300000386000007FE00000FFC00000C38000A7
:102040000000000000000000001C0000001C000058
:10205000001E0000003E0000003F0000007F000066
:10206000007F8000007F800000FF800000CFC00064
:1020700001CFC000018FC0000187E0000387E000AE
:102080000307F0000703F00007FFF00007FFF80068
:102090000E01F8000C01FC001C00FC001C00FE00FE
:1020A0003E00FE00FF83FF80FF83FF80191F7C1925
:1020B000000000C1800001E3C00001E3C00001E3B3
:1020C000C00000C1800000000000001C0000001CD7
:1020D0000000001E0000003E0000003F0000007FE6
:1020E0000000007F8000007F800000FF800000CFA4
:1020F000C00001CFC000018FC0000187E00003874E
:10210000E0000307F0000703F00007FFF00007FFFF
:10211000F8000E01F8000C01FC001C00FC001C0083
:10212000FE003E00FE00FF83FF80FF83FF80192139
:1021300084190000003E00000077000000630000EA
:102140000063000000770000003E00000000000077
:1021500000000000001C0000001C0000001E000029
:10216000003E0000003F0000007F0000007F800074
:10217000007F800000FF800000CFC00001CFC000C2
:10218000018FC0000187E0000387E0000307F00033
:102190000703F00007FFF00007FFF8000E01F8004A
:1021A0000C01FC001C00FC001C00FE003E00FE00B8
:1021B000FF83FF80FF83FF801F196421FF0001FF61
:1021C000FFFE01FFFFFE007BF07E003BF03E003390
:1021D000F01E0033F00E0073F0060063F0C600E35B
:1021E000F0C600C3F1C201C3F1C00183F3C0038391
:1021F000FFC00303FFC007FFF3C007FFF1C00E03DA
:10220000F0C60E03F0C60C03F0C61C03F00E180354
:10221000F00E3803F01E7C03F07EFF1FFFFEFF1F51
:10222000FFFE1620601801F9007E1803FFB807C1F1
:10223000F81F80F81F00783E00387E00387E0018B6
:10224000FE0018FC0008FC0000FC0000FC0000FC84
:102250000000FC0000FE0000FE000CFE001C7E00E2
:10226000187E00383F00301F80700FC1E007FFC0AC
:1022700000FF0000300000600000F800001C0000BB
:102280001C0001B80000F00015206017010000C01C
:102290000001E00001F00000F800003C00000C002C
:1022A000000000FFFFF8FFFFF81F81F81F80F81FF4
:1022B00080781F80381F80381F86181F86181F8E51
:1022C000001F8E001F9E001FFE001FFE001F9E00AD
:1022D0001F8E001F86181F86181F86181F80381F24
:1022E00080381F80781F81F8FFFFF8FFFFF8152066
:1022F00060170100000300000780000F80001F002E
:10230000003C00003000000000FFFFF8FFFFF81F56
:1023100081F81F80F81F80781F80381F80381F8643
:10232000181F86181F8E001F8E001F9E001FFE00A4
:102330001FFE001F9E001F8E001F86181F86181F7D
:1023400086181F80381F80381F80781F81F8FFFF94
:10235000F8FFFFF8152060170100003800007C002E
:1023600000FE0001C700030180000000000000FF24
:10237000FFF8FFFFF81F81F81F80F81F80781F808B
:10238000381F80381F86181F86181F8E001F8E006A
:102390001F9E001FFE001FFE001F9E001F8E001FBD
:1023A00086181F86181F86181F80381F80381F80C8
:1023B000781F81F8FFFFF8FFFFF815206017010074
:1023C00001830003C78003C78003C7800183000027
:1023D0000000000000FFFFF8FFFFF81F81F81F80DA
:1023E000F81F80781F80381F80381F86181F8618B6
:1023F0001F8E001F8E001F9E001FFE001FFE001F6D
:102400009E001F8E001F86181F86181F86181F80AB
:10241000381F80381F80781F81F8FFFFF8FFFFF812
:102420000C21420E0100300078007C003E000F00BD
:10243000030000000000FFF0FFF01F801F801F80DE
:102440001F801F801F801F801F801F801F801F8094
:102450001F801F801F801F801F801F801F801F8084
:102460001F801F80FFF0FFF00C21420E010000C012
:1024700001E003E007C00F000C0000000000FFF0C7
:10248000FFF01F801F801F801F801F801F801F8004
:102490001F801F801F801F801F801F801F801F8044
:1024A0001F801F801F801F801F801F80FFF0FFF094
:1024B0000C20400E010007000F801FC038E0603084
:1024C00000000000FFF0FFF01F801F801F801F80B2
:1024D0001F801F801F801F801F801F801F801F8004
:1024E0001F801F801F801F801F801F801F801F80F4
:1024F0001F80FFF0FFF00C20400E0100306078F0EC
:1025000078F078F0306000000000FFF0FFF01F80EE
:102510001F801F801F801F801F801F801F801F80C3
:102520001F801F801F801F801F801F801F801F80B3
:102530001F801F801F801F80FFF0FFF018194B1AAB
:102540000100FFFF00FFFFE01F83F01F81F81F80E5
:10255000FC1F807C1F807E1F807E1F807F1F803F2E
:102560001F803F1F803FFFF83FFFF83F1F803F1F46
:10257000803F1F803F1F807F1F807E1F807E1F80C7
:10258000FC1F80F81F83F0FFFFE0FFFF001B1F7C94
:102590001B000000386000007FE00000FFC000006A
:1025A000C380000000000000000000FF807FE0FF0B
:1025B000C07FE03FE00F000FE006000FF006000FC5
:1025C000F806000FFC06000DFE06000CFE06000CCF
:1025D000FF06000C7F86000C3FC6000C1FE6000CB7
:1025E0000FE6000C0FF6000C07FE000C03FE000CBB
:1025F00001FE000C00FE000C007E000C007E000CB2
:10260000003E001E001E00FFC00E00FFC0060018A6
:1026100020601A010001800003C00003E00001F007
:1026200000007800001800000000007E0003FFC0DA
:102630000FC1F01F80F83F00FC3E007C7E007E7ED4
:10264000007EFC003FFC003FFC003FFC003FFC0024
:102650003FFC003FFC003FFC003FFC003F7E007E53
:102660007E007E3E007C3F00FC1F80F80FC1F0031F
:10267000FFC0007E001820601A01000000C00001A9
:10268000E00003E00007C0000F00000C00000000A5
:10269000007E0003FFC00FC1F01F80F83F00FC3E2A
:1026A000007C7E007E7E007EFC003FFC003FFC0044
:1026B0003FFC003FFC003FFC003FFC003FFC003FB4
:1026C000FC003F7E007E7E007E3E007C3F00FC1FC3
:1026D00080F80FC1F003FFC0007E001820601A01CF
:1026E00000001C00003E00007F0000E3800180C06D
:1026F000000000000000007E0003FFC00FC1F01FBB
:1027000080F83F00FC3E007C7E007E7E007EFC0068
:102710003FFC003FFC003FFC003FFC003FFC003F53
:10272000FC003FFC003FFC003F7E007E7E007E3EC2
:10273000007C3F00FC1F80F80FC1F003FFC0007E4B
:1027400000181F5D1A01000070C000FFC001FF806B
:10275000018700000000000000007E0003FFC00FA2
:10276000C1F01F80F83F00FC3E007C7E007E7E00B2
:102770007EFC003FFC003FFC003FFC003FFC003FB4
:10278000FC003FFC003FFC003FFC003F7E007E7EE3
:10279000007E3E007C3F00FC1F80F80FC1F003FF6D
:1027A000C0007E001820601A010000C18001E3C053
:1027B00001E3C001E3C000C1800000000000000090
:1027C0007E0003FFC00FC1F01F80F83F00FC3E00F9
:1027D0007C7E007E7E007EFC003FFC003FFC003FD4
:1027E000FC003FFC003FFC003FFC003FFC003FFCC6
:1027F000003F7E007E7E007E3E007C3F00FC1F800E
:10280000F80FC1F003FFC0007E0010112214020077
:102810002004700EF81FFC3F7E7E3FFC1FF80FF077
:1028200007E00FF01FF83FFC7E7EFC3FF81F700EA4
:102830002004181B511A01FF00000C007E1803FF32
:10284000F807C3F01F80F81F00F83E00FC7E01FE71
:102850007E037EFE077FFC063FFC0C3FFC1C3FFC1A
:10286000183FFC303FFC603FFCE03FFEC07F7F80B4
:102870007E7F807E3F007C1F00F81F80F80FC1E044
:102880001BFFC0307E003000001A20801C010000B9
:1028900030000000780000007C0000003E000000D6
:1028A0000F00000003000000000000FFF0FFC0FF69
:1028B000F0FFC01F801E001F800C001F800C001F37
:1028C000800C001F800C001F800C001F800C001F5C
:1028D000800C001F800C001F800C001F800C001F4C
:1028E000800C001F800C001F800C001F800C001F3C
:1028F000800C001F800C001F801C000FC018000FF0
:10290000E0380007F8F00003FFE00000FFC0001A05
:1029100020801C0100000060000000F0000001F0B9
:10292000000003E000000780000006000000000037
:1029300000FFF0FFC0FFF0FFC01F801E001F800CD3
:10294000001F800C001F800C001F800C001F800CDB
:10295000001F800C001F800C001F800C001F800CCB
:10296000001F800C001F800C001F800C001F800CBB
:10297000001F800C001F800C001F800C001F801C9B
:10298000000FC018000FE0380007F8F00003FFE068
:102990000000FFC0001A20801C0100000E00000093
:1029A0001F0000003F80000071C00000C0600000F8
:1029B00000000000000000FFF0FFC0FFF0FFC01F9C
:1029C000801E001F800C001F800C001F800C001F49
:1029D000800C001F800C001F800C001F800C001F4B
:1029E000800C001F800C001F800C001F800C001F3B
:1029F000800C001F800C001F800C001F800C001F2B
:102A0000800C001F801C000FC018000FE03800076A
:102A1000F8F00003FFE00000FFC0001A20801C0156
:102A200000003060000078F0000078F0000078F0DE
:102A300000003060000000000000000000FFF0FF18
:102A4000C0FFF0FFC01F801E001F800C001F800C05
:102A5000001F800C001F800C001F800C001F800CCA
:102A6000001F800C001F800C001F800C001F800CBA
:102A7000001F800C001F800C001F800C001F800CAA
:102A8000001F800C001F800C001F801C000FC0184E
:102A9000000FE0380007F8F00003FFE00000FFC07F
:102AA000001821631800000000600000F00001F031
:102AB0000003E0000780000600000000000000FFA7
:102AC000F1FFFFF1FF3F807C1FC0381FC0700FE097
:102AD000700FE0E007F0C003F1C003F98001FB8054
:102AE00001FF0000FF00007E00007E00007E00006D
:102AF0007E00007E00007E00007E00007E00007EE2
:102B000000007E0003FFC003FFC016194B18010030
:102B1000FFF000FFF0001F80001F80001F80001FDB
:102B2000FF801FFFE01F83F01F81F81F80FC1F80C4
:102B3000FC1F80FC1F80FC1F80FC1F80FC1F81F895
:102B40001F83F01FFFE01FFF001F80001F80001F7A
:102B500080001F8000FFF000FFF00012194B1400EE
:102B60000003FC0007BE000F0F000F0F001F0F80B7
:102B70001F0F801F0F801F0F001F0F001F0E001F51
:102B80001C001F7E001F0F801F0F801F07C01F0724
:102B9000C01F07C01F07C01F07C01F07C01F078037
:102BA0001F07801F4F00FFFE00FF7800121745141B
:102BB000010003000007800007C00003E00000F0F0
:102BC000000030000000000FF0003FFC00783E00E5
:102BD0007C3E007C3E00383E00003E0003FE001FAD
:102BE000BE007E3E007C3E00FC3E00FC3E00FC7FC2
:102BF000407FFFC03F8F8012174514010000600026
:102C000000F00001F00003E0000780000600000073
:102C100000000FF0003FFC00783E007C3E007C3E50
:102C200000383E00003E0003FE001FBE007E3E0056
:102C30007C3E00FC3E00FC3E00FC7F407FFFC03F2E
:102C40008F8012164214010001C00003E00007F05B
:102C5000000E3800180C000000000FF0003FFC00D0
:102C6000783E007C3E007C3E00383E00003E000383
:102C7000FE001FBE007E3E007C3E00FC3E00FC3E8F
:102C800000FC7F407FFFC03F8F801216421401007E
:102C9000070C000FFC001FF8001870000000000077
:102CA00000000FF0003FFC00783E007C3E007C3EC0
:102CB00000383E00003E0003FE001FBE007E3E00C6
:102CC0007C3E00FC3E00FC3E00FC7F407FFFC03F9E
:102CD0008F801217451401000C18001E3C001E3C8A
:102CE000001E3C000C18000000000000000FF00067
:102CF0003FFC00783E007C3E007C3E00383E0000F9
:102D00003E0003FE001FBE007E3E007C3E00FC3EF7
:102D100000FC3E00FC7F407FFFC03F8F80121745C4
:102D200014010003E00007700006300006300007C1
:102D3000700003E0000000000FF0003FFC00783E50
:102D4000007C3E007C3E00383E00003E0003FE005A
:102D50001FBE007E3E007C3E00FC3E00FC3E00FCB0
:102D60007F407FFFC03F8F801A10401C010007E0AA
:102D7000F8001E7BDE00383F0F007C3F0F807C3E5A
:102D80000780783E07C031FE07C00FFFFFC03FFF3E
:102D9000FFC07E3E0000FC3E0000F83F00C0F87F10
:102DA0000180FCEF83807FC7FF003F01FC000F170D
:102DB0002E1101F903F00E3C3E3E7C3E7C3EF81C99
:102DC000F800F800F800F800FC02FC067E063F1C44
:102DD0001FF807F00180030007C000E000E00DC00D
:102DE000078010172E12010006000F000F8007C089
:102DF00001E00060000003E00E783C3C7C1E7C1E7D
:102E0000F81FF81FFFFFFFFFF800F800FC037C0627
:102E10003F0E1FFC07F010172E1201000030007843
:102E200000F801F003C00300000003E00E783C3C12
:102E30007C1E7C1EF81FF81FFFFFFFFFF800F80044
:102E4000FC037C063F0E1FFC07F010162C1201003D
:102E500001C003E007F00E38180C000003E00E7804
:102E60003C3C7C1E7C1EF81FF81FFFFFFFFFF80094
:102E7000F800FC037C063F0E1FFC07F010172E1213
:102E800001000C181E3C1E3C1E3C0C1800000000EB
:102E900003E00E783C3C7C1E7C1EF81FF81FFFFFF1
:102EA000FFFFF800F800FC037C063F0E1FFC07F054
:102EB00009172E0B01006000F000F8007C001E00D6
:102EC00006000000FE00FE003E003E003E003E0008
:102ED0003E003E003E003E003E003E003E003E0002
:102EE000FF80FF8009172E0B010006000F001F0056
:102EF0003E00780060000000FE00FE003E003E0044
:102F00003E003E003E003E003E003E003E003E00D1
:102F10003E003E00FF80FF800B162C0BFF000E00D2
:102F20001F003F8071C0C06000003F803F800F8065
:102F30000F800F800F800F800F800F800F800F8019
:102F40000F800F800F803FE03FE00B172E0B00003B
:102F500060C0F1E0F1E0F1E060C0000000007F003F
:102F60007F001F001F001F001F001F001F001F0009
:102F70001F001F001F001F001F007FC07FC0111A0D
:102F80004E1401000004000E0E000F9C0003F80018
:102F900001F00003F8000778000E3C00043E00003A
:102FA0001E0003FF000F3F003C1F007C1F80780FB6
:102FB00080F80F80F80F80F80F80F80F80F80F80EE
:102FC000F80F807C1F007C1F003E3E000FF80003BE
:102FD000E00014164216010003860007FE000FFCF5
:102FE000000C3800000000000000FE3E00FEFF80E4
:102FF0003FFF803F8FC03F07C03F07C03E07C03E36
:1030000007C03E07C03E07C03E07C03E07C03E07A0
:10301000C03E07C0FF9FF0FF9FF01117451301004E
:103020000600000F00000F800007C00001E0000054
:10303000600000000003E0000FF8003E3E007C1F2F
:10304000007C1F00F80F80F80F80F80F80F80F80C9
:10305000F80F80F80F807C1F007C1F003E3E000FA1
:10306000F80003E000111745130100001800003CB0
:1030700000007C0000F80001E0000180000000007A
:1030800003E0000FF8003E3E007C1F007C1F00F8AC
:103090000F80F80F80F80F80F80F80F80F80F80F7E
:1030A000807C1F007C1F003E3E000FF80003E00004
:1030B00011164213010001C00003E00007F0000EEA
:1030C0003800180C0000000003E0000FF8003E3E3E
:1030D000007C1F007C1F00F80F80F80F80F80F8025
:1030E000F80F80F80F80F80F807C1F007C1F003ED7
:1030F0003E000FF80003E0001116421301000386A2
:103100000007FE000FFC000C38000000000000006B
:1031100003E0000FF8003E3E007C1F007C1F00F81B
:103120000F80F80F80F80F80F80F80F80F80F80FED
:10313000807C1F007C1F003E3E000FF80003E00073
:103140001117451301000C18001E3C001E3C001E08
:103150003C000C180000000000000003E0000FF825
:10316000003E3E007C1F007C1F00F80F80F80F809F
:10317000F80F80F80F80F80F80F80F807C1F007C1C
:103180001F003E3E000FF80003E00011113314024F
:103190000001C00003E00003E00003E00001C00004
:1031A000000000FFFF80FFFF80FFFF80FFFF800027
:1031B000000000000001C00003E00003E00003E0A5
:1031C0000001C0001116421301FD000200000600BC
:1031D000000C0003EC000FF8003E3E007C3F007C3A
:1031E0006F00F84F80F8CF80F88F80F98F80FB0F49
:1031F00080FA0F807E1F007C1F003E3E001FF800FB
:103200001BE00030000030000020000014174516BD
:10321000010003000007800007C00003E00000F089
:1032200000003000000000FE1FC0FE1FC03E07C0AF
:103230003E07C03E07C03E07C03E07C03E07C03E37
:1032400007C03E07C03E0FC03E0FC03F1FC01FFF5C
:10325000C01FF7F007C7F01417451601000018004B
:10326000003C00007C0000F80001E000018000004C
:103270000000FE1FC0FE1FC03E07C03E07C03E0745
:10328000C03E07C03E07C03E07C03E07C03E07C065
:103290003E0FC03E0FC03F1FC01FFFC01FF7F0070B
:1032A000C7F014164216010000E00001F00003F818
:1032B00000071C000C0600000000FE1FC0FE1FC01F
:1032C0003E07C03E07C03E07C03E07C03E07C03EA7
:1032D00007C03E07C03E07C03E0FC03E0FC03F1FA5
:1032E000C01FFFC01FF7F007C7F0141745160100F5
:1032F000060C000F1E000F1E000F1E00060C000023
:103300000000000000FE1FC0FE1FC03E07C03E07B9
:10331000C03E07C03E07C03E07C03E07C03E07C0D4
:103320003E07C03E0FC03E0FC03F1FC01FFFC01F63
:10333000F7F007C7F0131E5A1300F9000C00001E27
:1033400000003E00007C0000F00000C00000000013
:10335000FF8FE0FF8FE03F03803F03801F03001FCC
:1033600087000F86000FC60007CC0007EC0003F8AB
:103370000003F80001F80001F00000F00000E00098
:1033800000600070C000F8C000F98000FF00007FFE
:1033900000003C0000141D571600F9FF0000FF005C
:1033A000001F00001F00001F00001F00001F3F0043
:1033B0001F7FC01FC7E01F83E01F83F01F03F01FA4
:1033C00003F01F01F01F01F01F01F01F03F01F8326
:1033D000E01F83E01FC7C01FFF801F3F001F0000CA
:1033E0001F00001F00001F00001F00007FE0007F83
:1033F000E000131E5A1300F9030600078F00078F21
:1034000000078F00030600000000000000FF8FE0AF
:10341000FF8FE03F03803F03801F03001F87000FE3
:1034200086000FC60007CC0007EC0003F80003F885
:103430000001F80001F00000F00000E00000600072
:1034400070C000F8C000F98000FF00007F00003C61
:103450000000001118FEFA0A0206049420FFFD0E77
:10346000FD0AFD000000030001020A0A040100C079
:10347000C0C0C0C0C0C000C0C0050404070106D859
:10348000D8D848070A0A07FF001414147E2828FC1D
:10349000505050060C0C0700FF1078D4D4F0783C44
:1034A0001C94D478100D0A140E000038C067C0C5F3
:1034B00080C9007300067004C80D88199018E00ACE
:1034C0000A140C01003C00660066003C0039C06C28
:1034D00080CD80C700EF807B00020404040106C099
:1034E000C0C040030D0D0501FD206040C0C0C0C03C
:1034F000C0C0C0406020030D0D0500FD80C04060CD
:1035000060606060606040C08005060607010420BE
:10351000A87070A820070707080000101010FE1000
:1035200010100204040300FEC0C040800301010427
:103530000003E0020202030000C0C0040A0A040003
:103540000010103020604040C08080060A0A07004A
:10355000007848CCCCCCCCCCCC4878060A0A070002
:103560000030F030303030303030FC060A0A0700CE
:1035700000387C8C0C0C183040FCFC060A0A070052
:1035800000387C8C0C381C0CC4EC78060A0A070046
:1035900000183838589898FCFC1818060A0A0700D2
:1035A000007C7C40787C0C04C4CC78060A0A0700B6
:1035B000001C3060E0F8CCCCCCCC78060A0A0700BE
:1035C00000FCFC8C08181010202060060A0A070076
:1035D0000078CCCCEC7878CCCCCC78060A0A070002
:1035E0000078CCCCCCCC7C183870C0020707040122
:1035F00000C0C0000000C0C00209090401FEC0C034
:10360000000000C0C04080070707080000061C70CB
:10361000C0701C06070303080002FE00FE07070730
:10362000080000C0701C061C70C0050A0A070100D3
:1036300070D8D8183060600060600B0C180E01FE66
:103640000F8038C0606045208F209B209B209F60AA
:103650008DC0400060001F800A0A140A00000C00A0
:103660000C001E001600330023003F0061804180E3
:10367000E3C0080A0A090000FE6363637E636363B4
:1036800063FE080A0A0A01003D63C1C1C0C0C0C18F
:10369000633E090A140A0000FE0063006180618035
:1036A00061806180618061806300FE00080A0A0910
:1036B0000000FF6361647C64606163FF080A0A08BC
:1036C0000000FF6361647C64646060F0090A140BAD
:1036D00001003D006300C100C100C000C780C300FD
:1036E000C30063003E000A0A140B0000F3C06180AF
:1036F000618061807F806180618061806180F3C0D2
:10370000040A0A050000F06060606060606060F0BC
:10371000060B0B0700FF3C18181818181818D8D8F3
:10372000700A0A140B0100F7C0630062006400789D
:10373000007C006E0067006380F7C0080A0A090079
:1037400000F06060606060616163FF0C0A140D004E
:1037500000F0F070E070E0596059605A604E604EC1
:10376000604460E4F00A0A140A0000E1C07080704E
:103770008058804C804C80468043804380E18009A3
:103780000A140B01003E006300C180C180C180C1EA
:1037900080C180C18063003E00080A0A090000FE63
:1037A000676363637E606060F0090D1A0B01FD3E84
:1037B000006300C180C180C180C180C180C18063BD
:1037C000003E001C000E0003800A0A140A0000FEDE
:1037D0000067006300630066007C006E00670063A2
:1037E00080F1C0070A0A0800007AC6C2E0781C0E01
:1037F00086C6FC080A0A090000FFDB991818181889
:1038000018183C090A140A0000F380610061006185
:1038100000610061006100610073003E000A0A144B
:103820000A0000F1C0608061803100330032001A6C
:10383000001E000C000C000F0A140EFF00F79E6320
:103840000C63083188319033901AD01CE00C600C66
:10385000600B0A140A0000F1C0708039001E000CD1
:10386000000E001700238041C0E3E00A0A140A009A
:1038700000F9C07080310039001A001E000C000CE5
:10388000000C001E00080A0A090000FFC7868C18F9
:10389000183161E3FF040D0D0500FDF0C0C0C0C08C
:1038A000C0C0C0C0C0C0C0F0040A0A0400008080CC
:1038B000C040602020301010040D0D0500FDF030D8
:1038C00030303030303030303030F0050505080110
:1038D00005207050D8880701010700FDFE0303038F
:1038E00005010880C02007070707000078CC0C7C82
:1038F000CCCC76070A0A080000E060607C66666649
:1039000066665C0507070600003058C8C0C0E8704E
:10391000070A0A0700001C0C0C7CCCCCCCCCCC7663
:10392000060707060000384CCCFCC0E478050A0AFC
:10393000050000386860F06060606060F0070A0AA7
:103940000700FD7ECCCCCC78407CFE827C080A0A45
:10395000080000E060606C7666666666E7040A0A46
:10396000040000606000E06060606060F0040D0DC5
:1039700004FFFD3030007030303030303030B0E097
:10398000080A0A080000E060606E6468786C66E708
:10399000040A0A040000E06060606060606060F03B
:1039A0000C070E0C0000ECC0776066606660666015
:1039B0006660F770080707080000EC7666666666C2
:1039C000E706070707000078CCCCCCCCCC78070AF8
:1039D0000A0800FDEC76666666667C6060F0070AA1
:1039E0000A0700FD6CDCCCCCCCCC7C0C0C1E060792
:1039F00007060000DC6C60606060F00507070600E9
:103A00000078C8E0703898F00509090500002060CA
:103A1000F060606068703008070707FF00EE6666B8
:103A20006666663B08070707FF00F76262343418D2
:103A3000180A070E0A0000EEC06480768037003B4B
:103A4000003B001200070707070000EE6C3838380B
:103A50006CEE080A0A07FFFDF76232341C1C0808E6
:103A60003830060707060000FC9C183064E4FC05AB
:103A70000D0D0701FD183030303060C0603030303F
:103A80003018010C0C0301FE8080808080808080D3
:103A900080808080050D0D0700FDC0606060603093
:103AA000183060606060C007040408000360F29E84
:103AB0000CFFFFFFFFFFFFFFFFFFFFFFFFFFFFFF09
:103AC000FFFFFFFFFFFFFFFFFFFFFFFFFFFFFFFF06
:103AD000FFFF000000030001020A0A0401FDC0C04C
:103AE00000C0C0C0C0C0C0C0060B0B0700FE080865
:103AF00078D4D0D0F0E4782020070A0A0800003CEF
:103B000076666030F83030F6DE07060608000238C8
:103B1000EE4444EE38080A0A080000F76276343CA6
:103B2000183C18183C010C0C0301FE80808080803A
:103B300000008080808080050C0C0701FE70D8C8D2
:103B400060F098C8783098D870030202050108A088
:103B5000A00A0A140C01001E0061804E8092409061
:103B600040904092404C8061801E00040707050091
:103B700003601070907000F0070505090101366CB4
:103B8000D86C36070404090101FE02020203010198
:103B9000040003E00A0A140C01001E0061805C802E
:103BA000924092409C409440528061801E000401EB
:103BB00001050008F0040404060106609090600707
:103BC0000909080000101010FE10101000FE040675
:103BD0000604000460B03060C0F00406060400046F
:103BE00060B06030B0600303030501082060800806
:103BF0000A0A07FFFDEE66666666667B4060600740
:103C00000D0D0800FD7EF4F4F4F47414141414146F
:103C10001414020202040004C0C00303030501FDE2
:103C20004020E004060604000420E0606060F00428
:103C30000707050003609090906000F007050509F4
:103C40000101D86C366CD80A0A140A00002100E27F
:103C500000620064006480F9800B80168017C02128
:103C6000800A0A140A00002100E200620064006574
:103C700080FAC008C01180130023C00A0A140A0089
:103C8000006100B20062003400B48069800B8016CD
:103C90008017C02180050A0A0701FD30300030304E
:103CA00060C0D8D8700A0E1C0A000010001800046A
:103CB0000000000C000C001E001600330023003F23
:103CC0000061804180E3C00A0E1C0A000002000669
:103CD00000080000000C000C001E0016003300233A
:103CE000003F0061804180E3C00A0E1C0A0000080A
:103CF000001C00220000000C000C001E0016003307
:103D00000023003F0061804180E3C00A0D1A0A00D1
:103D1000001A002C0000000C000C001E00160033DE
:103D20000023003F0061804180E3C00A0D1A0A00B1
:103D3000001200120000000C000C001E00160033E0
:103D40000023003F0061804180E3C00A0E1C0A008E
:103D5000000C0012000C0000000C000C001E0016ED
:103D600000330023003F0061804180E3C00D0A144E
:103D70000E00001FF80F180B081B2013E03F202334
:103D80002863084318E7F8080D0D0A01FD3D63C1DB
:103D9000C1C0C0C0C1633E100838080E0E09000043
:103DA00020300800FF6361647C64656163FF080E76
:103DB0000E090000040C1000FF6361647C646561FF
:103DC00063FF080E0E090000081C2200FF636164F7
:103DD0007C64656163FF080D0D090000242400FF69
:103DE0006361647C64656163FF040E0E05000080FE
:103DF000C02000F06060606060606060F0040E0EE3
:103E000005000010304000F060606060606060603D
:103E1000F0050E0E05000020708800F06060606004
:103E200060606060F0040D0D050000909000F0608F
:103E300060606060606060F0090A140B0100FE00C1
:103E4000630061806180F1806180618061806300D6
:103E5000FE000A0D1A0A00001A002C000000E1C042
:103E60007080708058804C804C80468043804380B6
:103E7000E180090E1C0B0100100018000400000076
:103E80003E006300C180C180C180C180C180C1800B
:103E900063003E00090E1C0B010004000C00100022
:103EA00000003E006300C180C180C180C180C1802C
:103EB000C18063003E00090E1C0B010008001C00BD
:103EC000220000003E006300C180C180C180C1802B
:103ED000C180C18063003E00090D1A0B01001A0069
:103EE0002C0000003E006300C180C180C180C18001
:103EF000C180C18063003E00090D1A0B0100220041
:103F0000220000003E006300C180C180C180C180EA
:103F1000C180C18063003E00080707080000C36637
:103F20003C183C66C3090C180B01FF00803D006380
:103F300000C380C580C980C980D180E18063005EF4
:103F4000008000090E1C0A00001000180004000088
:103F500000F3806100610061006100610061006147
:103F60000073003E00090E1C0A000004000C001043
:103F7000000000F380610061006100610061006188
:103F800000610073003E00090E1C0A000008001CBE
:103F90000022000000F380610061006100610061A7
:103FA000006100610073003E00090D1A0A00001252
:103FB0000012000000F38061006100610061006197
:103FC000006100610073003E000A0E1C0A0000013F
:103FD00000030004000000F9C07080310039001AAD
:103FE000001E000C000C000C001E00080A0A09004C
:103FF00000F0607E676363637E60F0070A0A080072
:1040000000386C646C786C666666EC070B0B070016
:10401000002030080078CC0C7CCCCC76070B0B074A
:1040200000000818200078CC0C7CCCCC76070B0B59
:104030000700001038440078CC0C7CCCCC76070A02
:104040000A07000034580078CC0C7CCCCC76070AE8
:104050000A07000028280078CC0C7CCCCC76070B13
:104060000B0700003048300078CC0C7CCCCC760AB2
:10407000070E0B00007B80CCC0CCC03FC0CC00CC76
:10408000C07780060A0A0700FD384CCCC0C0E4782F
:10409000201070060B0B07000040601000384CCC5D
:1040A000FCC0E478060B0B07000008182000384C11
:1040B000CCFCC0E478060B0B070000103844003835
:1040C0004CCCFCC0E478060A0A07000050500038C7
:1040D0004CCCFCC0E478040B0B04000080C0200032
:1040E000E06060606060F0040B0B04000020608002
:1040F00000E06060606060F0050B0B040000207061
:104100008800E06060606060F0040A0A040000A0BB
:10411000A000E06060606060F0060A0A070000CC62
:10412000709878CCCCCCCCCC78080A0A0800003443
:104130005800EC7666666666E7060B0B0700002003
:1041400030080078CCCCCCCCCC78060B0B07000028
:104150000818200078CCCCCCCCCC78060B0B070010
:10416000002070880078CCCCCCCCCC78060A0A072A
:10417000000068B00078CCCCCCCCCC78060A0A071A
:10418000000050500078CCCCCCCCCC780607070887
:104190000000303000FC0030300609090700FF0441
:1041A00078CCDCECECCC7880080B0B07FF002030DF
:1041B0000800EE66666666663B080B0B07FF0004A8
:1041C0000C1000EE66666666663B080B0B07FF0088
:1041D00010384400EE66666666663B080A0A07FF0A
:1041E00000282800EE66666666663B080E0E07FF2E
:1041F000FD02060800F76232341C1C08083830073C
:104200000D0D0800FDE060606C76666666667C6099
:1042100060F0080D0D07FFFD222200F76232341C0A
:104220001C080838307C3C3E5E2B3D3F2F5B5D3BDD
:104230002C2A225C00FFE0FFD1AFFF32FFD0FFFE4F
:10424000FFE0FFD1AEFFD0FFFEFFE0FFD11000FF87
:10425000FEFFD0FFE0FFC1FFD1AED580A83FD30065
:10426000408D142000A1C8DA1281CFD9F1DB402E95
:10427000A4A6AFFFD0FFFE00002200250028002BDF
:10428000002E003100340002010000050108010B7E
:1042900001000020002300260029002C002F0032FE
:1042A000000001000003010601090100000A0B02E1
:1042B000090C0D0E080703040100000000000000B7
:1042C00000000000000000000000000000000000EE
:1042D00000000000000000121110000000000000AB
:1042E00000000000000000000000000000000000CE
:1042F00000006E4A11241FBECFEFD1E2DEBFCDBF5A
:1043000000E00CBF1BE0A0E0B2E0E8E7F0EA00E06C
:104310000BBF02C007900D92AA35B107D9F724E16F
:10432000AAE5BBE001C01D92A03CB207E1F711E293
:10433000CAE7D1E200E006C021970109802FFE0103
:104340000E94BA4BC937D10780E00807A9F70E943D
:10435000283F0C943A500C940000DC015996ED91E2
:10436000FC915A973097B9F083899489A589B689C9
:104370004285538564857585841B950BA60BB70B09
:10438000811520E89207A105B10538F08FEF9FE76E
:10439000A0E0B0E0089580E090E00895CF93DF932F
:1043A0001F92CDB7DEB76983DC01ED91FC910280ED
:1043B000F381E02D41E050E0BE016F5F7F4F199522
:1043C0000F90DF91CF910895FB019F01261B370BC2
:1043D000241735072CF42191DC012D93CD01F5CF65
:1043E0000895FC01818D928D009711F00C94B331EA
:1043F00008958F929F92AF92BF92CF92DF92EF92E9
:10440000FF920F931F93CF93DF9300D01F92CDB7EE
:10441000DEB77C0180E2689F60011124960126547A
:104420003D4ED9011B969C91917121F0842F82748D
:1044300009F097C0142FF701628B80919B06909131
:104440009C06A0919D06B0919E0686879787A08BBB
:10445000B18BF601E654FD4E4489558960E070E069
:10446000BA0155274427D70157964D935D936D9315
:104470007C935A97828D938DA0E0B0E0482B592B06
:104480006A2B7B2BD70157964D935D936D937C934D
:104490005A97D9011B968C91887159F4848D958D0A
:1044A000A68DB78DF701838B948BA58BB68B81E09E
:1044B00012C0803109F055C097012D5E3F4FD701E2
:1044C0005B968D919C915C970E944B31882309F4F7
:1044D00048C084E0F7018583812F8F70D70114963F
:1044E0008C931497F70116821782108611861A96FC
:1044F0001D921D921D921C921D9716FF34C0159699
:104500008C91813071F511FF2CC0F70143895489DA
:1045100065897689452B462B472B09F461C040E01D
:1045200050E0BA01C7010E94EF318823D1F0F701B2
:104530008788908CA18CB28CC38CD48C82E090E064
:10454000A0E0B0E0F60180839183A283B3839E0153
:104550002F5F3F4FB501A401C6010E94C8308111F1
:1045600004C080E03DC081E03BC000E010E0980165
:10457000B501A401C6010E942930882391F38980E6
:104580009A80AB80BC80D60157968C91803129F0FF
:1045900088EF9FEFAFEFBFE004C088EF9FEFA0E090
:1045A000B0E088169906AA06BB0688F2D70157968E
:1045B0001D921D921D921C925A97F701138A148A1C
:1045C000158A168A848180688483C7010E94B3316A
:1045D000882339F240E050E0BA01C7010E94EF3170
:1045E0000F900F900F900F90DF91CF911F910F912F
:1045F000FF90EF90DF90CF90BF90AF909F908F9003
:104600000895CF93DF93EC01898D9A8D009739F44B
:1046100081E090E09B838A8380E090E00BC0FC0106
:10462000138212820E948432E98DFA8D22813381B5
:10463000232B71F7DF91CF910895CF92DF92EF9204
:10464000FF920F931F93CF93DF931F92CDB7DEB7E7
:104650006C01DC01DC961C91DC97DB960C917C01F3
:10466000B4E0EB0EF11CDC015996ED91FC915A97E8
:10467000C70169831995482F410F2981602FC70110
:104680000E949938F60123AD082E000C990B820F79
:10469000911D83AF81E090E00F90DF91CF911F914A
:1046A0000F91FF90EF90DF90CF900895CF93DF931D
:1046B000EC010E94B331882311F01D8281E0DF916B
:1046C000CF9108953F924F925F926F927F928F9217
:1046D0009F92AF92BF92CF92DF92EF92FF920F9391
:1046E0001F93CF93DF93CDB7DEB72C970FB6F89417
:1046F000DEBF0FBECDBF5C01DC015B968D909C9050
:104700005C971696CD90DD90ED90FC901997C114B2
:10471000D104E104F10439F0BFEFCB1ADB0AEB0A54
:10472000FB0A312C07C0F401C080D180E280F38005
:1047300033243394F40181859285A385B4859C014B
:10474000AD012F5F3F4F4F4F5F4F29873A874B8710
:104750005C87260137011D821E821F821886F401A4
:1047600081859285A385B4852D813E814F815885B1
:10477000281739074A075B0708F063C089859A85BF
:10478000AB85BC858C159D05AE05BF0550F482E058
:10479000C82ED12CE12CF12C92E0492E512C612C09
:1047A000712C9E012F5F3F4FB701A601C4010E94EB
:1047B000C830882309F445C089819A81AB81BC81C6
:1047C000892B8A2B8B2B41F0260137019FEF491A49
:1047D000590A690A790A05C0C414D504E604F70425
:1047E00091F02D813E814F8158852F5F3F4F4F4F74
:1047F0005F4F2D833E834F8358873FEFC31AD30A01
:10480000E30AF30AACCF0FEF1FEF2FEF3FE0B30146
:10481000A201C4010E942930882399F0D50116967F
:104820004D915D916D917C911997411551056105EF
:10483000710549F093018201C4010E942930811160
:1048400002C080E02AC0D50116964D925D926D920D
:104850007C921997332051F0D301C2010196A11D1A
:10486000B11DF40180839183A283B383F50187890D
:10487000908DA18DB28D892B8A2B8B2B69F4D5015C
:1048800057964D925D926D927C925A9714968C91A8
:104890001497806814968C9381E02C960FB6F89448
:1048A000DEBF0FBECDBFDF91CF911F910F91FF9063
:1048B000EF90DF90CF90BF90AF909F908F907F90C0
:1048C0006F905F904F903F9008958FB7F8948091CC
:1048D00048108FBF089561E0FC0184810E94A136D9
:1048E0008091471081111092471008958EBD0000ED
:1048F0000DB407FEFDCF8EB508958FEFF7CF0F9360
:104900001F93CF93DF93EB010E940C378B01F5DFF0
:104910008F3F49F00E940C37601B710B6C177D07AD
:10492000B0F380E001C081E0DF91CF911F910F9142
:104930000895CF93DF93EC018E81882379F08F81E6
:1049400098859C012F5F3F4F38872F83823092409C
:1049500010F4D3DFF4CFCE01BEDF1E82DF91CF9102
:1049600008958CBD9DBD0895CF93DF93EC01809198
:104970004710811108C081E0809347108091931106
:1049800090919411EEDF60E08C81DF91CF910C94D7
:10499000A136CF92DF92FF920F931F93CF93DF93B5
:1049A00000D01F92CDB7DEB76C01F62E29833A8373
:1049B0004B835C83BEDFC601D7DF6CE271E0C601CA
:1049C0009EDF8F2D806492DF08E110E05C814B81D7
:1049D0003A812981DA01C901002E04C0B695A79554
:1049E000979587950A94D2F729833A834B835C8302
:1049F0007DDF0850110929813A814B815C81083F94
:104A00008FEF180739F7FF2029F0E8E0FE1204C005
:104A100087E803C085E901C08FEF68DF10E06DDF34
:104A2000F601828787FF04C01F3F11F01F5FF7CF99
:104A30000F900F900F900F90DF91CF911F910F91DA
:104A4000FF90DF90CF900895AF92BF92CF92DF9208
:104A5000EF92FF920F931F93CF93DF93EC016901C5
:104A6000C801820F931F8130924008F06AC08E8186
:104A7000882371F088819981AA81BB8148175907E1
:104A80006A077B0729F48F819885C816D90698F59F
:104A9000488359836A837B838B85833039F089E02F
:104AA000440F551F661F771F8A95D1F79A01AB01F6
:104AB00061E1CE016EDF882319F083E08D8341C070
:104AC0000E940C375B0119DF8A878F3F49F40E94EF
:104AD0000C376A197B096D327140A8F38FE003C06F
:104AE0008E3F29F08DE08D83CE01F5DE2AC0188639
:104AF0001F8281E08E838F8198858C159D0538F407
:104B0000FCDE8F819885019698878F83F4CF6701AB
:104B1000E00EF11ECE14DF0429F0EFDEF6018193E2
:104B20006F01F8CF8F819885080F191F18870F83A1
:104B30008985882319F00115124038F0CE01F9DE7D
:104B400004C0CE01C8DE80E001C081E0DF91CF91DA
:104B50001F910F91FF90EF90DF90CF90BF90AF909B
:104B600008952F923F924F925F926F927F928F9211
:104B70009F92AF92BF92CF92DF92EF92FF920F93EC
:104B80001F93CF93DF93EC016B014A018D8181115B
:104B900003C08FEF9FEFD6C08C8180FFFACF4B8888
:104BA0005C886D887E884A855B856C857D85C401BF
:104BB000A0E0B0E093018201041B150B260B370B1C
:104BC000081719072A073B0718F44201841A950AA7
:104BD00054011E0126E0220E311CA114B10409F477
:104BE0007EC04A855B856C857D852A0181E05822DF
:104BF000ED818A019B0189E03695279517950795E8
:104C00008A95D1F78B8D9C8DE23061F4FC01828D09
:104C1000938DA48DB58DBC01CD01600F711F821FD6
:104C2000931F3FC0FC0174807A9470224114510498
:104C3000C9F4711017C0452B462B472B49F48F89B7
:104C4000988DA98DBA8D8E839F83A887B9870AC056
:104C50004E815F816885798591010E94C8308823E3
:104C600009F497CFEB8DFC8D8E819F81A885B98546
:104C70000297A109B109058404C0880F991FAA1FD2
:104C8000BB1F0A94D2F74685578560897189840FC6
:104C9000951FA61FB71FBC01CD01670D711D811D9A
:104CA000911D20E032E02419350935012A153B0514
:104CB00008F439012C8126FD04C06114F2E07F065E
:104CC00081F400919B0610919C0620919D063091E5
:104CD0009E066017710782079307B1F402C0C401F2
:104CE00031C040E00E94E12F882309F452CFF20145
:104CF000E654FD4ED601CF01860D971DE817F90742
:104D000081F021912D93FACF760183019201AB01BD
:104D1000BC018091BA149091BB1496DE882309F4EB
:104D200038CFC60CD71C8A859B85AC85BD85860D82
:104D3000971DA11DB11D8A879B87AC87BD87A618CB
:104D4000B7084BCFDF91CF911F910F91FF90EF905C
:104D5000DF90CF90BF90AF909F908F907F906F909B
:104D60005F904F903F902F900895CF93DF931F92C5
:104D7000CDB7DEB741E050E0BE016F5F7F4FF1DE9F
:104D8000019719F4898190E002C08FEF9FEF0F9097
:104D9000DF91CF9108954F925F926F927F929F9291
:104DA000AF92BF92CF92DF92EF92FF920F931F9339
:104DB000CF93DF93CDB7DEB72B970FB6F894DEBF56
:104DC0000FBECDBF7C01DC011596AC90A11085C152
:104DD000FE0131966F0190E28BE08E0F91938E135E
:104DE000FDCFDA0130E087E09D91992339F19E32C1
:104DF00019F0E5E2F2E40AC08A3009F46FC138E044
:104E00008AE0F2CF3196491709F468C14491411103
:104E1000F9CF831708F462C14FED490F4E3508F002
:104E20005DC141E0430FF601E30FF11D3FE9390F8A
:104E30003A3108F490529083342FD6CF8981803252
:104E400009F44CC1B22E8B01DB015B968D919C91D4
:104E50005C97F701948F838F16961D921D921D9279
:104E60001C921997FB011286138614861586712CE5
:104E7000F80182859385A485B58543895489658920
:104E8000768984179507A607B70708F060C025E064
:104E9000B695A795979587952A95D1F7F82FFF7026
:104EA0006F2ED80115968C91823008F417C1C80175
:104EB0005CDF97FD13C1F80182859385A485B585D4
:104EC0004F96A11DB11D82879387A487B587F0E215
:104ED0006F9EC0011124BC0166547D4E61157105A1
:104EE00009F4FCC0DB012C91222319F0253EC1F40A
:104EF00027C071100EC0F701628A40919B06509145
:104F00009C0660919D0670919E0646875787608B30
:104F1000718BFC01E654FD4E8081811113C015C0D8
:104F20004BE050E0C6010E94F34C892B09F0A0CF62
:104F30008B2D8073803309F4D1C04B2D662DC9C0F1
:104F40007720C9F27724739493CF772473948B2DB1
:104F50008271823109F0C2C07720D1F0D7011E964C
:104F60006D917D918D919C91519741E00E94E12F2F
:104F7000882309F4B3C0F7016289F0E26F9FB001A2
:104F8000112466547D4E6115710509F077C0A6C0E5
:104F9000D80115968C91823009F4A0C0C80192DB2B
:104FA000882309F49BC0D8015B96ED91FC915C9736
:104FB00016964D905D906D907C901997B2E04B1ACB
:104FC000510861087108058404C0440C551C661C16
:104FD000771C0A94D2F786859785A089B189480EF7
:104FE000591E6A1E7B1E9480E1E04E1A510861082A
:104FF0007108992001F1ACD7882309F46FC0EAEB5E
:10500000F2E1119224E1EA3BF207D9F7D301C201A0
:10501000890D911DA11DB11D80939B0690939C0647
:10502000A0939D06B0939E06809149108160809365
:1050300049109A94DECFD8015B96ED91FC915C9774
:1050400080E092E0A0E0B0E0058404C0880F991FE2
:10505000AA1FBB1F0A94D2F7F801438954896589B6
:105060007689840F951FA61FB71F838B948BA58B02
:10507000B68BD70152961C926AEB72E180E2FB017B
:1050800011928A95E9F78BE0F601DB0101900D9210
:105090008A95E1F781E298E2DB0151969C938E9329
:1050A000509720E038E01F963C932E931E9753961E
:1050B0009C938E93529759969C938E93589757969C
:1050C0003C932E93569744D7882341F04B2DF701FC
:1050D0006289C7018ED9A82E01C0A12C8A2D2B96DA
:1050E0000FB6F894DEBF0FBECDBFDF91CF911F91F9
:1050F0000F91FF90EF90DF90CF90BF90AF909F9077
:105100007F906F905F904F900895FC01818D928DFC
:10511000009709F02ACE8FEF9FEF08950F931F930A
:10512000CF93DF93FC01818D928D0097B1F0EF0159
:105130001CDE8C010F3F8FEF180791F0898D9A8D3F
:10514000FC0142855385648575854150510961098B
:1051500071090E94EF31C80105C080E090E002C0F3
:105160008FEF9FEFDF91CF911F910F910895EF92F5
:10517000FF920F931F93CF93DF93EC0179014115B9
:1051800051056105710511F482E134C08B858330CE
:1051900039F089E0440F551F661F771F8A95D1F7B4
:1051A0009A01AB0168E1CE01F4DB882311F084E0C1
:1051B00021C08EEF9BDB87018EEFF81AF8018191F9
:1051C0008F0194DB0E151F05C9F78FEF8FDB8FEF73
:1051D0008DDB93DB8A878F71853029F081E18D83A8
:1051E000CE0179DB08C068E572E0CE0188DB811171
:1051F00006C085E18D83CE016EDB80E010C020E02B
:1052000030E0A9016DE0CE01C4DB811103C075DB84
:10521000882311F084E1EECFCE015DDB81E0DF91E8
:10522000CF911F910F91FF90EF900895FC01DB014A
:1052300012968D919C9113979383828380EF96E0D1
:105240009183808314968C911497848315968C9106
:105250001597858316964D915D916D917C91199767
:1052600046835783608771871A964D915D916D9142
:105270007C911D9742875387648775871E964D9151
:105280005D916D917C91519746875787608B718BAB
:1052900052968C915297828B53964D915D916D9160
:1052A0007C915697438B548B658B768B57964D919B
:1052B0005D916D917C915A97478B508F618F728F62
:1052C0005B968D919C915C97948F838F0895EF925C
:1052D000FF920F931F93CF93DF93EC017B018A0121
:1052E0001B821A8288EE93E0A0E0B0E08C839D835D
:1052F000AE83BF8380E197E0998388838DE190E05E
:105300000E94C24B9A8F898F009779F02DE1F701A7
:10531000DC0101900D922A95E1F74CE050E0B801D4
:10532000CE010C960E940B4D188EDF91CF911F91EC
:105330000F91FF90EF900895CF93C82F803E11F00A
:10534000803D31F460ED89E590E10E94C434C150A4
:105350006C2F89E590E1CF910C94C434CF93DF9307
:1053600040915D0D50915E0D21E031E0429FF001D2
:10537000439FF00D529FF00D1124E55AF44F208108
:105380003181A9014F5F5F4F51834083DF01A20F3D
:10539000B31F41E012964C93DC019D01281B390B91
:1053A000261737076CF420813181A9014F5F5F4FC9
:1053B000518340834D91EF01C20FD31F4A83EDCF3C
:1053C000DF91CF9108958F929F92AF92BF92CF922B
:1053D000DF92EF92FF920F931F93CF93DF93CDB79E
:1053E000DEB76B970FB6F894DEBF0FBECDBF40E1BE
:1053F00050E0BE01655D7F4F87E892E00E94E421A6
:1054000040E150E0BE01655C7F4F8BEC9DE00E9467
:10541000E42148E050E0BE01655B7F4F8DE792E0FC
:105420000E94E42148E050E0BE016D5A7F4F8DE4B8
:1054300092E00E94E42185E0FE01E55AFF4FA6E6D6
:10544000B2E001900D928A95E1F7A1968FADA197F8
:1054500080936202A8968FADA8978093DB0DA396E8
:105460008EAD9FADA3979093C60D8093C50DA59665
:105470008EAD9FADA5979093C80D8093C70DA7964D
:105480008EAD9FADA7979093CA0D8093C90D8CE701
:105490009AE00E94C13D8091DB0D0E94563A8FE94F
:1054A0009AE00E940A3A1092C40D1092C30D80EB4C
:1054B0009AE00E94A93B882309F4AEC041E060EB6A
:1054C0007AE0CE0101960E94A53ACE0101960E9493
:1054D0007A3A60E070E0CB010E942E3D88EB9AE0C2
:1054E0000E940A3A86E692E00E940A3AE6E6F2E074
:1054F00001900020E9F73197CF01865692407C0158
:1055000009F48FC000E010E00E940C37609326126F
:10551000709327128093281290932912E0911E1203
:10552000F0911F120680F781E02D8EE192E119952E
:1055300097FD0BC0F801EA59FD4F2081022E000CA7
:10554000330B8217930719F559C00E940C378090CE
:10555000261290902712A0902812B0902912DC01F8
:10556000CB0188199909AA09BB0980902212909051
:105570002312A0902412B090251288159905AA052F
:10558000BB0560F28CEF9AE00E940A3A42C0011516
:10559000110521F420E030E08901B6CF9801A9017E
:1055A00041505109FA01EA59FD4F6081062E000C65
:1055B000770B86179707F1F44115510569F3A6E6B5
:1055C000B2E060E070E06801C41AD50ABD90FB014A
:1055D000EC0DFD1DEA59FD4FE081BE1629F0641760
:1055E0007507D1F29A01DBCF6F5F7F4F64177507A4
:1055F00068F3F5CF41155105A9F7CCCF98012F5F7E
:105600003F4F2E153F0541F60CC087ED9AE00E94F2
:10561000C13D0E94673A3AC08DED9AE00E940A3A75
:1056200035C08EE192E171DD8093C30D87EA98E089
:105630000E94C13D8091C30D0E94563A84E6EFE579
:10564000FDE0DF011D928A95E9F76091C30D70E0DE
:10565000CF010E94403D81E08093C40D8AE09BE031
:105660000E940A3A87ED9AE00E94C13D10E08091C5
:10567000C30D181750F6E12FF0E0E15AF24F6081A8
:1056800086EF90E10E94C4341F5FF1CF6B960FB696
:10569000F894DEBF0FBECDBFDF91CF911F910F9168
:1056A000FF90EF90DF90CF90BF90AF909F908F9042
:1056B0000895FF920F931F93CF93DF93CDB7DEB77B
:1056C0006B970FB6F894DEBF0FBECDBF1092DE0D04
:1056D0002091DC0D3091DD0D80915A0B90E0019707
:1056E000281739073CF42F5F3F4F3093DD0D20938F
:1056F000DC0D04C01092DD0D1092DC0DF090DC0D7D
:1057000082EE97E00E94A93B8E010F5F1F4F882316
:10571000E1F041E062EE77E0C8010E94A53AC801DD
:105720000E947A3A8EE3F89EB0011124072E000CF5
:10573000880B990B0E942E3D6EE370E08FE092E0A3
:105740000E94403D0E94673A04C084E19BE00E94B1
:105750000A3A8DB79EB7CE970FB6F8949EBF0FBE8C
:105760008DBFADB7BEB711968EE3EFE0F2E00190CA
:105770000D928A95E1F727DEF090DC0D0FB6F894D4
:10578000DEBF0FBECDBF81EC97E00E94A93B88230E
:10579000E9F043E161EC77E0C8010E94A53AC80155
:1057A0000E947A3A60E070E0CB010E942E3D6F2D9E
:1057B0008EE192E10E94CE210E94673A88E39BE04D
:1057C0000E94C13D8F2D0E94563A04C08CE098E0A3
:1057D0000E940A3A8091DD0D8F938091DC0D8F93AA
:1057E00080E398E09F938F931F930F930E941A4D2D
:1057F0000E94903C0F900F900F900F900F900F9081
:1058000082E594E30E944E3D4EE358E06AE080E07A
:105810000E94C23C8EEA91E00E944E3D46E652E074
:105820006DE280E00E94C23C82E594E30E944E3D1E
:10583000A80160E480E00E94C23C0E94F63C811115
:10584000DFCF0E940C376093DF0D7093E00D8093E3
:10585000E10D9093E20D10929A026B960FB6F894B8
:10586000DEBF0FBECDBFDF91CF911F910F91FF9093
:105870000895EF92FF920F931F93CF93DF930E94AF
:10588000903C80911612803438F580911512803842
:1058900018F50BE912E0D0E07801C0E0F701819142
:1058A0007F016091E4117091E511C093FE11D093D6
:1058B000FF1110920112809300122EEF31E14BE3A1
:1058C00082EE91E10E949437C85FC03839F7005FDB
:1058D0001F4FDF5FD03401F70E94F63C8111D1CF1A
:1058E000DF91CF911F910F91FF90EF900895FC01F0
:1058F000E60FF11D849190E0982F88273196E4916E
:105900008E0F911D08952EE93FE0009729F0F901CF
:105910003197F1F70197F9CF089510924F10109237
:105920004E1008958093B9121092B90084FF02C0FE
:105930008CE001C088E48093B800EFCFDB011496BF
:10594000ED91FC91159720E030E065E01994DB01C2
:105950001496ED91FC91159720E030E062E01994E7
:10596000DB011496ED91FC91159720E030E063E0A7
:105970001994CF92DF92EF92FF920F931F93CF93E0
:10598000DF938C017B016A0180E0F601C4918111F3
:105990000AC0CF3F09F447C04C2FB701C801CEDF82
:1059A00081113FC045C0CF3F11F44FEFF6CFCE3F3E
:1059B00009F440C0C03FA8F5C03E30F04C2F4F70F6
:1059C000B701C801C4DF2DC0C03D30F04C2F4F706F
:1059D000B701C801C5DF25C0C03CF0F0D70114965F
:1059E000ED91FC91159720E030E040E064E0C801C3
:1059F0001995C295C07FCE5FD0E0CE0184DFD7017C
:105A00001496ED91FC91159720E030E041E064E0C0
:105A1000C8011995CE0104C0C7FD03C08C2F90E0CA
:105A200072DF80E001C081E0BFEFCB1ADB0AADCFAF
:105A300080E001C081E0DF91CF911F910F91FF9035
:105A4000EF90DF90CF9008958F929F92AF92BF9288
:105A5000CF92DF92FF920F931F93CF93DF931F920A
:105A60001F92CDB7DEB76C018B01F42E490120E106
:105A7000421709F45DC02417D8F03AE0431701F14A
:105A80008FE048135EC041E0C6016ADF40E0B80124
:105A9000C6015DDF41E8B801C60150DFF401408175
:105AA000B801C6014BDF40E0B801C60159DF02C1B1
:105AB000A1E14A1709F43FC0B5E14B1789F041C095
:105AC000DB011496ED91FC91159720E030E042E067
:105AD00061E0199541E552E4B801C6014ADF31C0E1
